:100000000C94F1000C940E010C940E010C940E0152
:100010000C940E010C940E010C940E010C940E0124
:100020000C940E010C940E010C9478040C94B20400
:100030000C940E010C940E010C940E010C940E0104
:100040000C940E010C940E010C940E010C940E01F4
:100050000C940E010C940E010C940E010C940E01E4
:100060000C940E010C940E010C940E010C940E01D4
:100070000C940E010C940E010C940E010C940E01C4
:100080000C940E010C940E010C940E010C940E01B4
:100090000C940E010C940E010C940E010C940E01A4
:1000A0000C940E010C940E010C940E012004180403
:1000B000100408040004F803F003E803E003D80385
:1000C000D003C803C003B803B003A803A003980378
:1000D0009003880380037803700368036003580368
:1000E0005003480340033803300328032003180358
:1000F000100308030003F802F002E802E002D8024D
:10010000D002C802C002B802B002A802A00298023F
:10011000900288028002780270026802600258022F
:100120005002480240023802300228022002000138
:100130000000C5011200020000820143000300001C
:100140007E0104010309046A011202030904620129
:100150000603030904580108080334003100300085
:10016000000006034D003200000012034A002E007A
:1001700020004600690065006E0065000000040371
:10018000090409024300020100C032090400000111
:1001900002020100052400100105240101010424CC
:1001A0000206052406000107058203100040090429
:1001B0000100020A000000070503024000000705D5
:1001C00084024000001201000202000010C0167AF2
:1001D000040001010203010001C112018036018106
:1001E000360011241FBECFEFDAE0DEBFCDBF11E035
:1001F000A0E0B1E0EAECF3E102C005900D92A83076
:10020000B107D9F711E0A8E0B1E001C01D92AC3010
:10021000B107E1F70E9406090C94E3090C94000071
:100220008091E80080FFFCCF089581E08093D700A3
:1002300080EA8093D80082E189BD09B400FEFDCF39
:1002400080E98093D8001092E00010920B01109288
:1002500008018CE08093E2007894089580910B016E
:1002600008959FB7F89480910B01882339F083E0BB
:100270008093E9008091E80085FD03C09FBF8FEF68
:1002800008958091F1002091E80025FD03C02BE640
:100290002093E8009FBF08959FB7F89480910B01C9
:1002A000882331F083E08093E9008091F20001C05F
:1002B00080E09FBF089580910B01882371F08FB774
:1002C000F89493E09093E9002BE69091E80095FF75
:1002D00003C02093E800F9CF8FBF089590910B01E0
:1002E000992371F09FB7F89424E02093E9002091BE
:1002F0000901222349F02091E80025FD03C09FBF9A
:100300008FEF0895109209012091E400275E34E0F8
:100310004091E80045FD12C09FBF9091E400921308
:1003200004C081E080930901EBCF90910B019923E8
:1003300039F39FB7F8943093E900EACF8093F10046
:100340008091E80085FD03C08AE38093E80085E0A2
:1003500080930A019FBF80E0089590910B0199233B
:10036000D1F09FB7F89424E02093E9002091E800B1
:1003700025FD02C09FBF0FC08093F1008091E8006F
:1003800085FD03C08AE38093E80085E080930A013D
:100390009FBF80E008958FEF0895EF92FF921F9323
:1003A000CF93DF937C01CB0120910B01222371F0CD
:1003B000AFB7F89424E02093E900209109012223AB
:1003C00049F02091E80025FD03C0AFBF8FEF42C286
:1003D00010920901B4E0C0E4DAE315E0009709F4F3
:1003E00037C22091E400275E3091E80035FD12C04D
:1003F000AFBF3091E400321304C081E08093090163
:10040000E5CF30910B01332309F3AFB7F894B093E4
:10041000E900EACF2091F2004C2F421B242F30E05C
:100420008217930708F4482F841B910950E0413448
:10043000510508F0FDC14A5A5F4FFA010C940709B3
:10044000F70120812093F10097012F5F3F4F790141
:10045000F70120812093F10097012F5F3F4F790131
:10046000F70120812093F10097012F5F3F4F790121
:10047000F70120812093F10097012F5F3F4F790111
:10048000F70120812093F10097012F5F3F4F790101
:10049000F70120812093F10097012F5F3F4F7901F1
:1004A000F70120812093F10097012F5F3F4F7901E1
:1004B000F70120812093F10097012F5F3F4F7901D1
:1004C000F70120812093F10097012F5F3F4F7901C1
:1004D000F70120812093F10097012F5F3F4F7901B1
:1004E000F70120812093F10097012F5F3F4F7901A1
:1004F000F70120812093F10097012F5F3F4F790191
:10050000F70120812093F10097012F5F3F4F790180
:10051000F70120812093F10097012F5F3F4F790170
:10052000F70120812093F10097012F5F3F4F790160
:10053000F70120812093F10097012F5F3F4F790150
:10054000F70120812093F10097012F5F3F4F790140
:10055000F70120812093F10097012F5F3F4F790130
:10056000F70120812093F10097012F5F3F4F790120
:10057000F70120812093F10097012F5F3F4F790110
:10058000F70120812093F10097012F5F3F4F790100
:10059000F70120812093F10097012F5F3F4F7901F0
:1005A000F70120812093F10097012F5F3F4F7901E0
:1005B000F70120812093F10097012F5F3F4F7901D0
:1005C000F70120812093F10097012F5F3F4F7901C0
:1005D000F70120812093F10097012F5F3F4F7901B0
:1005E000F70120812093F10097012F5F3F4F7901A0
:1005F000F70120812093F10097012F5F3F4F790190
:10060000F70120812093F10097012F5F3F4F79017F
:10061000F70120812093F10097012F5F3F4F79016F
:10062000F70120812093F10097012F5F3F4F79015F
:10063000F70120812093F10097012F5F3F4F79014F
:10064000F70120812093F10097012F5F3F4F79013F
:10065000F70120812093F10097012F5F3F4F79012F
:10066000F70120812093F10097012F5F3F4F79011F
:10067000F70120812093F10097012F5F3F4F79010F
:10068000F70120812093F10097012F5F3F4F7901FF
:10069000F70120812093F10097012F5F3F4F7901EF
:1006A000F70120812093F10097012F5F3F4F7901DF
:1006B000F70120812093F10097012F5F3F4F7901CF
:1006C000F70120812093F10097012F5F3F4F7901BF
:1006D000F70120812093F10097012F5F3F4F7901AF
:1006E000F70120812093F10097012F5F3F4F79019F
:1006F000F70120812093F10097012F5F3F4F79018F
:10070000F70120812093F10097012F5F3F4F79017E
:10071000F70120812093F10097012F5F3F4F79016E
:10072000F70120812093F10097012F5F3F4F79015E
:10073000F70120812093F10097012F5F3F4F79014E
:10074000F70120812093F10097012F5F3F4F79013E
:10075000F70120812093F10097012F5F3F4F79012E
:10076000F70120812093F10097012F5F3F4F79011E
:10077000F70120812093F10097012F5F3F4F79010E
:10078000F70120812093F10097012F5F3F4F7901FE
:10079000F70120812093F10097012F5F3F4F7901EE
:1007A000F70120812093F10097012F5F3F4F7901DE
:1007B000F70120812093F10097012F5F3F4F7901CE
:1007C000F70120812093F10097012F5F3F4F7901BE
:1007D000F70120812093F10097012F5F3F4F7901AE
:1007E000F70120812093F10097012F5F3F4F79019E
:1007F000F70120812093F10097012F5F3F4F79018E
:10080000F70120812093F10097012F5F3F4F79017D
:10081000F70120812093F10097012F5F3F4F79016D
:10082000F70120812093F10097012F5F3F4F79015D
:10083000F70120812093F10097012F5F3F4F79014D
:100840002091E80025FFD093E80010930A01C6CD5F
:10085000AFBF80E0DF91CF911F91FF90EF9008959F
:100860008FB7F89490910A01992341F094E0909306
:10087000E9009AE39093E80010920A018FBF08956F
:1008800080910401089580910501089580910601E9
:1008900008958091080108959FB7F89420910B0165
:1008A000222339F022E02093E9003091E80035FD61
:1008B00003C09FBF8FEF089531EA3093F10030E21B
:1008C0003093F1001092F1001092F1001092F100BB
:1008D0001092F1002093F1001092F1008093F1004A
:1008E0001092F1008AE38093E8009FBF80E00895B2
:1008F0001F920F920FB60F9211248F939F938091A6
:10090000E1001092E10083FF11C01092E90091E034
:100910009093EB001092EC0092E19093ED0098E040
:100920009093F00010920B011092080182FF13C007
:1009300080910B01882379F080910A01882359F076
:10094000815080930A01811106C084E08093E90000
:100950008AE38093E8009F918F910F900FBE0F90D4
:100960001F9018951F920F920FB60F921124EF92BD
:10097000FF920F931F932F933F934F935F936F9328
:100980007F938F939F93AF93BF93EF93FF93CF93F7
:10099000DF931F92CDB7DEB71092E9008091E80097
:1009A00083FF15C19091F1008091F1003091F10029
:1009B0002091F100E32EF12CF22A0091F100209118
:1009C000F10010E0122B2091F1006091F10032EF64
:1009D0003093E800863009F046C036E08EE291E0C0
:1009E000FC01459154914E155F0539F4FC01329696
:1009F000459154914017510721F00796315081F7E6
:100A0000E6C0FC01349645915491FC0136968491E0
:100A100030E0362B2F3F310519F010F02FEF30E08A
:100A2000281708F4822F3EEF9091E800292F2570B7
:100A3000D9F392FDCFC0982F813108F090E1FA01EF
:100A4000292F222331F064916093F10021503196D7
:100A5000F8CF490F511D891B3093E8008111E4CF75
:100A6000903111F3B7C0853051F48EEF8093E800D8
:100A70000E9410018E2D80688093E300ABC0893006
:100A800061F5911181C0E0920B0110920801109262
:100A90000A018EEF8093E80041E087ED91E04093FA
:100AA000E9009C012F5F3F4FFC0154915093EB00F4
:100AB000552361F0F90124912093EC009C012D5FF6
:100AC0003F4FFC01329684918093ED004F5F45309B
:100AD00011F0C901E4CF8EE175C0883051F490382F
:100AE00009F052C00E94100180910B018093F10027
:100AF00047C0813279F4913A09F046C00E94100152
:100B0000E0E0F1E081918093F10081E0E730F807C7
:100B1000C9F736C0803299F49132B1F58091E8007E
:100B200082FFFCCFE0E0F1E08091F100819381E071
:100B3000E730F807C9F78BEF8093E80021C08232D5
:100B400041F4913209F043C0E09208010E94100183
:100B500017C0811119C099830E94100199819238A0
:100B600051F40093E9008091EB0085FB882780F920
:100B70001092E90001C080E08093F1001092F10032
:100B80008EEF8093E80026C0282F2D7F2130F9F4C6
:100B90009230E9F4EF28D9F40F779FEF900F94305B
:100BA000B0F49EEF9093E8000093E900833079F071
:100BB00089E18093EB0081E090E0002E01C0880F76
:100BC0000A94EAF78093EA001092EA0003C081E2F7
:100BD0008093EB000F90DF91CF91FF91EF91BF9148
:100BE000AF919F918F917F916F915F914F913F91C5
:100BF0002F911F910F91FF90EF900F900FBE0F90CC
:100C00001F9018951F93CF93DF93EC01FE01149171
:100C1000112351F01A3019F48DE00E946E01812FDA
:100C20000E946E012196F2CFDF91CF911F9108951E
:100C30008A3010F490E301C097E3890F0C946E01A1
:100C4000CF93C82F82958F700E9418068C2F8F70BB
:100C5000CF910C941806CF93C82F892F0E9420069D
:100C60008C2FCF910C9420060C942006EF92FF92CB
:100C70000F931F93CF93DF93CDB7DEB727970FB6B0
:100C8000F894DEBF0FBECDBF8E010F5F1F4F27E070
:100C9000F80111922A95E9F74AE050E0B8010E9464
:100CA0000D097E01F8E0EF0EF11CF80181918F0132
:100CB00081110E946E010E151F05B9F727960FB618
:100CC000F894DEBF0FBECDBFDF91CF911F910F9182
:100CD000FF90EF900895EF92FF920F931F93CF93A1
:100CE000DF9300D000D000D0CDB7DEB78E010F5F0C
:100CF0001F4F26E0F80111922A95E9F74AE050E0EB
:100D0000B8010E9487097E01F6E0EF0EF11CF801A0
:100D100081918F0181110E946E010E151F05B9F797
:100D200026960FB6F894DEBF0FBECDBFDF91CF91F0
:100D30001F910F91FF90EF900895EF92FF920F9304
:100D40001F93CF93DF93CDB7DEB72B970FB6F894F1
:100D5000DEBF0FBECDBF8E010F5F1F4F2BE0F8012E
:100D600011922A95E9F72AE030E0A8010E942E09A5
:100D70007E01FCE0EF0EF11CF80181918F018111E1
:100D80000E946E010E151F05B9F72B960FB6F89449
:100D9000DEBF0FBECDBFDF91CF911F910F91FF90AE
:100DA000EF900895EF92FF920F931F93CF93DF93ED
:100DB000CDB7DEB72B970FB6F894DEBF0FBECDBF11
:100DC0008E010F5F1F4F2BE0F80111922A95E9F772
:100DD0002AE030E0A8010E9462097E01FBE0EF0EEC
:100DE000F11CF80181918F0181110E946E010E1595
:100DF0001F05B9F72B960FB6F894DEBF0FBECDBF17
:100E0000DF91CF911F910F91FF90EF900895E4E64D
:100E1000F0E080818B7F808384B1876084B983E533
:100E20008CBD2FEF83EC99E0215080409040E1F79A
:100E300000C0000008952C98805E8EBD0DB407FEA2
:100E4000FDCFFB01CF01861B970B8417950734F468
:100E500081918EBD0DB407FEFDCFF4CF2C9A08957D
:100E60002C9820EA2EBD0DB407FEFDCFFC019F019A
:100E7000281B390B2617370734F421912EBD0DB4EA
:100E800007FEFDCFF4CF2C9A08952C988EBD0DB49B
:100E900007FEFDCFFB012FEFCF01861B970B8417B9
:100EA00095073CF42EBD0DB407FEFDCF8EB58193A2
:100EB000F3CF2C9A0895AB01BC018BE00C941B0777
:100EC0002C9881EE8EBD0DB407FEFDCF2C9A0895AF
:100ED0002C9882EE8EBD0DB407FEFDCF2C9A08959E
:100EE000CF93DF931F92CDB7DEB78BE3898341E0C9
:100EF00050E0BE016F5F7F4F80E00E941B078FE3D1
:100F00009FE10197F1F700C00000289A0F90DF9150
:100F1000CF910895289808959F92AF92BF92CF9253
:100F2000DF92EF92FF920F931F93CF93DF9300D046
:100F30001F92CDB7DEB77C018B01B42E1B820E94BD
:100F40008A07C12C80E2A82E9AE3992ECB140CF0CC
:100F50005CC00E946007AB8241E050E0BE016D5F63
:100F60007F4F87E00E941B07C39445E050E0B80123
:100F700080E10E941B0745E050E0B8018AE00E9432
:100F80001B079A8241E050E0BE016E5F7F4F80E018
:100F90000E941B0760910701772767FD7095C701C5
:100FA0000E943007289A8FE39FE10197F1F700C074
:100FB000000028988FE79EE30197F1F700C000003A
:100FC000198241E050E0BE016F5F7F4F87E00E94D1
:100FD0004507D9809D2D9072D92E80E18B8341E009
:100FE00050E0BE016D5F7F4F87E00E941B07DD2050
:100FF00009F4ACCF80E28B8341E050E0BE016D5F2D
:101000007F4F87E00E941B0701C0D12C0E94700710
:10101000D11002C080E001C08C2D0F900F900F9076
:10102000DF91CF911F910F91FF90EF90DF90CF90C4
:10103000BF90AF909F90089541E00C948C07CF93A0
:10104000DF931F92CDB7DEB78FEF898341E050E089
:10105000BE016F5F7F4F87E00E944507898186FB55
:10106000882780F90F90DF91CF910895CF93DF9378
:101070001F92CDB7DEB78FEF898341E050E0BE010C
:101080006F5F7F4F87E00E94450729812E7081E0C6
:1010900090E011F480E090E00F90DF91CF910895FF
:1010A0000F931F93CF93DF931F92CDB7DEB78C01C1
:1010B0000E948A078FEFF80180832C9881E68EBD0D
:1010C0000DB407FEFDCFF80180910701992787FD38
:1010D00090959F01201B310B2817390744F480811C
:1010E0008EBD0DB407FEFDCF8EB58193EDCF2C9A4A
:1010F0008FE39FE10197F1F700C000000E943608DE
:10110000892B51F080E4898341E050E0BE016F5F9C
:101110007F4F87E00E941B070E9470070F90DF91AE
:10112000CF911F910F910895CF93DF931F92CDB769
:10113000DEB78FEF898341E050E0BE016F5F7F4FE4
:1011400087E10E94450789818695817090E00F9024
:10115000DF91CF910895CF93DF93EC010E941F0898
:10116000882321F0CE010E945008F8CFDF91CF9163
:1011700008950F931F93CF93DF931F92CDB7DEB7E0
:101180008C01609307012FEF81EE94E021508040A5
:101190009040E1F700C000000E94070784B1816120
:1011A00084B988E3898341E050E0BE016F5F7F4FDF
:1011B00080E00E941B0780910701898341E050E095
:1011C000BE016F5F7F4F82E10E941B0783E089832E
:1011D00041E050E0BE016F5F7F4F81E00E941B073E
:1011E000198241E050E0BE016F5F7F4F84E00E94B2
:1011F0001B0765E070E0C8010E945B070E94700752
:101200000F90DF91CF911F910F910895FFCFEE0FB7
:10121000FF1F0590F491E02D0994FB019F01E894D4
:101220004230C4F04532B4F44A3029F497FB1EF43E
:10123000909581959F4F642F77270E94AD09805D1F
:101240008A330CF0895D8193CB010097A1F716F4E6
:101250005DE251931082C9010C949D09FA01CF936C
:10126000FF93EF93223044F1253234F5C22FE894F6
:10127000CA3049F497FB3EF490958095709561953E
:101280007F4F8F4F9F4F2C2F332744275527FF9396
:10129000EF930E94C109EF91FF91605D6A330CF0FA
:1012A000695D6193B901CA0160507040804090400F
:1012B00051F716F4CDE2C19310828F919F91CF9197
:1012C0000C949D09FA01CF93FF93EF932230CCF059
:1012D0002532BCF4C22F2C2F332744275527FF93E8
:1012E000EF930E94C109EF91FF91605D6A330CF0AA
:1012F000695D6193B901CA016050704080409040BF
:1013000051F710828F919F91CF910C949D09FB0111
:101310009F01423074F0453264F4642F77270E94B5
:10132000AD09805D8A330CF0895D8193CB01009714
:10133000A1F71082C9010C949D09DC01FC01672F03
:1013400071917723E1F7329704C07C916D9370839C
:101350006291AE17BF07C8F30895AA1BBB1B51E1EA
:1013600007C0AA1FBB1FA617B70710F0A61BB70B15
:10137000881F991F5A95A9F780959095BC01CD01BA
:101380000895A1E21A2EAA1BBB1BFD010DC0AA1FC6
:10139000BB1FEE1FFF1FA217B307E407F50720F0DE
:1013A000A21BB30BE40BF50B661F771F881F991F59
:1013B0001A9469F760957095809590959B01AC01A2
:0A13C000BD01CF010895F894FFCF9E
:0813CA0000E10000000008082A
:00000001FF
